:100000000C9434000C943E000C943E000C943E0082
:100010000C943E000C943E000C943E000C943E0068
:100020000C943E000C943E000C943E000C943E0058
:100030000C943E000C943E000C943E000C943E0048
:100040000C943E000C943E000C943E000C943E0038
:100050000C943E000C943E000C943E000C943E0028
:100060000C943E000C943E0011241FBECFEFD8E04C
:10007000DEBFCDBF0E9440000C94B6000C9400007F
:100080008FE184B985B1816085B92FEF80E792E077
:10009000215080409040E1F700C0000085B115B8C4
:1000A0002FEF80E792E0215080409040E1F700C0C0
:1000B000000085B1826085B92FEF80E792E0215082
:1000C00080409040E1F700C0000085B115B82FEFE7
:1000D00080E792E0215080409040E1F700C00000AE
:1000E00085B1846085B92FEF80E792E02150804090
:1000F0009040E1F700C0000085B115B82FEF80E710
:1001000092E0215080409040E1F700C0000085B1AE
:10011000886085B92FEF80E792E0215080409040C1
:10012000E1F700C0000085B115B82FEF80E792E03D
:10013000215080409040E1F700C0000085B180610F
:1001400085B92FEF80E792E0215080409040E1F7A1
:1001500000C0000085B115B82FEF80E792E0215074
:1001600080409040E1F700C000008CCFF894FFCFB2
:00000001FF
