S0140000426C696E6B696E67202843292E737265632E
S11300000C9434000C943E000C943E000C943E007E
S11300100C943E000C943E000C943E000C943E0064
S11300200C943E000C943E000C943E000C943E0054
S11300300C943E000C943E000C943E000C943E0044
S11300400C943E000C943E000C943E000C943E0034
S11300500C943E000C943E000C943E000C943E0024
S11300600C943E000C943E0011241FBECFEFD8E048
S1130070DEBFCDBF0E9440000C945A000C940000D7
S113008081E084B985B1816085B92FEF83EC99E073
S1130090215080409040E1F700C0000085B115B8C0
S11300A02FEF83EC99E0215080409040E1F700C0AD
S10B00B00000E8CFF894FFCF33
S9030000FC
